{
  "_format": "hh-sol-artifact-1",
  "contractName": "TestERC721",
  "sourceName": "contracts/ERC721.sol",
  "abi": [
    {
      "inputs": [],
      "stateMutability": "nonpayable",
      "type": "constructor"
    },
    {
      "anonymous": false,
      "inputs": [
        {
          "indexed": true,
          "internalType": "address",
          "name": "owner",
          "type": "address"
        },
        {
          "indexed": true,
          "internalType": "address",
          "name": "approved",
          "type": "address"
        },
        {
          "indexed": true,
          "internalType": "uint256",
          "name": "tokenId",
          "type": "uint256"
        }
      ],
      "name": "Approval",
      "type": "event"
    },
    {
      "anonymous": false,
      "inputs": [
        {
          "indexed": true,
          "internalType": "address",
          "name": "owner",
          "type": "address"
        },
        {
          "indexed": true,
          "internalType": "address",
          "name": "operator",
          "type": "address"
        },
        {
          "indexed": false,
          "internalType": "bool",
          "name": "approved",
          "type": "bool"
        }
      ],
      "name": "ApprovalForAll",
      "type": "event"
    },
    {
      "anonymous": false,
      "inputs": [
        {
          "indexed": true,
          "internalType": "address",
          "name": "previousOwner",
          "type": "address"
        },
        {
          "indexed": true,
          "internalType": "address",
          "name": "newOwner",
          "type": "address"
        }
      ],
      "name": "OwnershipTransferred",
      "type": "event"
    },
    {
      "anonymous": false,
      "inputs": [
        {
          "indexed": true,
          "internalType": "address",
          "name": "from",
          "type": "address"
        },
        {
          "indexed": true,
          "internalType": "address",
          "name": "to",
          "type": "address"
        },
        {
          "indexed": true,
          "internalType": "uint256",
          "name": "tokenId",
          "type": "uint256"
        }
      ],
      "name": "Transfer",
      "type": "event"
    },
    {
      "inputs": [
        {
          "internalType": "address",
          "name": "to",
          "type": "address"
        },
        {
          "internalType": "uint256",
          "name": "tokenId",
          "type": "uint256"
        }
      ],
      "name": "approve",
      "outputs": [],
      "stateMutability": "nonpayable",
      "type": "function"
    },
    {
      "inputs": [
        {
          "internalType": "address",
          "name": "owner",
          "type": "address"
        }
      ],
      "name": "balanceOf",
      "outputs": [
        {
          "internalType": "uint256",
          "name": "",
          "type": "uint256"
        }
      ],
      "stateMutability": "view",
      "type": "function"
    },
    {
      "inputs": [
        {
          "internalType": "uint256",
          "name": "tokenId",
          "type": "uint256"
        }
      ],
      "name": "burn",
      "outputs": [],
      "stateMutability": "nonpayable",
      "type": "function"
    },
    {
      "inputs": [
        {
          "internalType": "uint256",
          "name": "tokenId",
          "type": "uint256"
        }
      ],
      "name": "getApproved",
      "outputs": [
        {
          "internalType": "address",
          "name": "",
          "type": "address"
        }
      ],
      "stateMutability": "view",
      "type": "function"
    },
    {
      "inputs": [
        {
          "internalType": "address",
          "name": "owner",
          "type": "address"
        },
        {
          "internalType": "address",
          "name": "operator",
          "type": "address"
        }
      ],
      "name": "isApprovedForAll",
      "outputs": [
        {
          "internalType": "bool",
          "name": "",
          "type": "bool"
        }
      ],
      "stateMutability": "view",
      "type": "function"
    },
    {
      "inputs": [],
      "name": "name",
      "outputs": [
        {
          "internalType": "string",
          "name": "",
          "type": "string"
        }
      ],
      "stateMutability": "view",
      "type": "function"
    },
    {
      "inputs": [],
      "name": "owner",
      "outputs": [
        {
          "internalType": "address",
          "name": "",
          "type": "address"
        }
      ],
      "stateMutability": "view",
      "type": "function"
    },
    {
      "inputs": [
        {
          "internalType": "uint256",
          "name": "tokenId",
          "type": "uint256"
        }
      ],
      "name": "ownerOf",
      "outputs": [
        {
          "internalType": "address",
          "name": "",
          "type": "address"
        }
      ],
      "stateMutability": "view",
      "type": "function"
    },
    {
      "inputs": [],
      "name": "renounceOwnership",
      "outputs": [],
      "stateMutability": "nonpayable",
      "type": "function"
    },
    {
      "inputs": [
        {
          "internalType": "address",
          "name": "to",
          "type": "address"
        },
        {
          "internalType": "string",
          "name": "uri",
          "type": "string"
        }
      ],
      "name": "safeMint",
      "outputs": [],
      "stateMutability": "nonpayable",
      "type": "function"
    },
    {
      "inputs": [
        {
          "internalType": "address",
          "name": "from",
          "type": "address"
        },
        {
          "internalType": "address",
          "name": "to",
          "type": "address"
        },
        {
          "internalType": "uint256",
          "name": "tokenId",
          "type": "uint256"
        }
      ],
      "name": "safeTransferFrom",
      "outputs": [],
      "stateMutability": "nonpayable",
      "type": "function"
    },
    {
      "inputs": [
        {
          "internalType": "address",
          "name": "from",
          "type": "address"
        },
        {
          "internalType": "address",
          "name": "to",
          "type": "address"
        },
        {
          "internalType": "uint256",
          "name": "tokenId",
          "type": "uint256"
        },
        {
          "internalType": "bytes",
          "name": "data",
          "type": "bytes"
        }
      ],
      "name": "safeTransferFrom",
      "outputs": [],
      "stateMutability": "nonpayable",
      "type": "function"
    },
    {
      "inputs": [
        {
          "internalType": "address",
          "name": "operator",
          "type": "address"
        },
        {
          "internalType": "bool",
          "name": "approved",
          "type": "bool"
        }
      ],
      "name": "setApprovalForAll",
      "outputs": [],
      "stateMutability": "nonpayable",
      "type": "function"
    },
    {
      "inputs": [
        {
          "internalType": "bytes4",
          "name": "interfaceId",
          "type": "bytes4"
        }
      ],
      "name": "supportsInterface",
      "outputs": [
        {
          "internalType": "bool",
          "name": "",
          "type": "bool"
        }
      ],
      "stateMutability": "view",
      "type": "function"
    },
    {
      "inputs": [],
      "name": "symbol",
      "outputs": [
        {
          "internalType": "string",
          "name": "",
          "type": "string"
        }
      ],
      "stateMutability": "view",
      "type": "function"
    },
    {
      "inputs": [
        {
          "internalType": "uint256",
          "name": "tokenId",
          "type": "uint256"
        }
      ],
      "name": "tokenURI",
      "outputs": [
        {
          "internalType": "string",
          "name": "",
          "type": "string"
        }
      ],
      "stateMutability": "view",
      "type": "function"
    },
    {
      "inputs": [
        {
          "internalType": "address",
          "name": "from",
          "type": "address"
        },
        {
          "internalType": "address",
          "name": "to",
          "type": "address"
        },
        {
          "internalType": "uint256",
          "name": "tokenId",
          "type": "uint256"
        }
      ],
      "name": "transferFrom",
      "outputs": [],
      "stateMutability": "nonpayable",
      "type": "function"
    },
    {
      "inputs": [
        {
          "internalType": "address",
          "name": "newOwner",
          "type": "address"
        }
      ],
      "name": "transferOwnership",
      "outputs": [],
      "stateMutability": "nonpayable",
      "type": "function"
    }
  ],
  "bytecode": "0x60806040523480156200001157600080fd5b506040518060400160405280600b81526020017f54657374455243313135350000000000000000000000000000000000000000008152506040518060400160405280600381526020017f5453540000000000000000000000000000000000000000000000000000000000815250816000908051906020019062000096929190620001a6565b508060019080519060200190620000af929190620001a6565b505050620000d2620000c6620000d860201b60201c565b620000e060201b60201c565b620002bb565b600033905090565b6000600760009054906101000a900473ffffffffffffffffffffffffffffffffffffffff16905081600760006101000a81548173ffffffffffffffffffffffffffffffffffffffff021916908373ffffffffffffffffffffffffffffffffffffffff1602179055508173ffffffffffffffffffffffffffffffffffffffff168173ffffffffffffffffffffffffffffffffffffffff167f8be0079c531659141344cd1fd0a4f28419497f9722a3daafe3b4186f6b6457e060405160405180910390a35050565b828054620001b49062000285565b90600052602060002090601f016020900481019282620001d8576000855562000224565b82601f10620001f357805160ff191683800117855562000224565b8280016001018555821562000224579182015b828111156200022357825182559160200191906001019062000206565b5b50905062000233919062000237565b5090565b5b808211156200025257600081600090555060010162000238565b5090565b7f4e487b7100000000000000000000000000000000000000000000000000000000600052602260045260246000fd5b600060028204905060018216806200029e57607f821691505b60208210811415620002b557620002b462000256565b5b50919050565b612ec880620002cb6000396000f3fe608060405234801561001057600080fd5b50600436106101165760003560e01c8063715018a6116100a2578063b88d4fde11610071578063b88d4fde146102cb578063c87b56dd146102e7578063d204c45e14610317578063e985e9c514610333578063f2fde38b1461036357610116565b8063715018a6146102695780638da5cb5b1461027357806395d89b4114610291578063a22cb465146102af57610116565b806323b872dd116100e957806323b872dd146101b557806342842e0e146101d157806342966c68146101ed5780636352211e1461020957806370a082311461023957610116565b806301ffc9a71461011b57806306fdde031461014b578063081812fc14610169578063095ea7b314610199575b600080fd5b61013560048036038101906101309190611d9a565b61037f565b6040516101429190611de2565b60405180910390f35b610153610461565b6040516101609190611e96565b60405180910390f35b610183600480360381019061017e9190611eee565b6104f3565b6040516101909190611f5c565b60405180910390f35b6101b360048036038101906101ae9190611fa3565b610539565b005b6101cf60048036038101906101ca9190611fe3565b610651565b005b6101eb60048036038101906101e69190611fe3565b6106b1565b005b61020760048036038101906102029190611eee565b6106d1565b005b610223600480360381019061021e9190611eee565b61072d565b6040516102309190611f5c565b60405180910390f35b610253600480360381019061024e9190612036565b6107df565b6040516102609190612072565b60405180910390f35b610271610897565b005b61027b6108ab565b6040516102889190611f5c565b60405180910390f35b6102996108d5565b6040516102a69190611e96565b60405180910390f35b6102c960048036038101906102c491906120b9565b610967565b005b6102e560048036038101906102e0919061222e565b61097d565b005b61030160048036038101906102fc9190611eee565b6109df565b60405161030e9190611e96565b60405180910390f35b610331600480360381019061032c9190612352565b6109f1565b005b61034d600480360381019061034891906123ae565b610a2a565b60405161035a9190611de2565b60405180910390f35b61037d60048036038101906103789190612036565b610abe565b005b60007f80ac58cd000000000000000000000000000000000000000000000000000000007bffffffffffffffffffffffffffffffffffffffffffffffffffffffff1916827bffffffffffffffffffffffffffffffffffffffffffffffffffffffff1916148061044a57507f5b5e139f000000000000000000000000000000000000000000000000000000007bffffffffffffffffffffffffffffffffffffffffffffffffffffffff1916827bffffffffffffffffffffffffffffffffffffffffffffffffffffffff1916145b8061045a575061045982610b42565b5b9050919050565b6060600080546104709061241d565b80601f016020809104026020016040519081016040528092919081815260200182805461049c9061241d565b80156104e95780601f106104be576101008083540402835291602001916104e9565b820191906000526020600020905b8154815290600101906020018083116104cc57829003601f168201915b5050505050905090565b60006104fe82610bac565b6004600083815260200190815260200160002060009054906101000a900473ffffffffffffffffffffffffffffffffffffffff169050919050565b60006105448261072d565b90508073ffffffffffffffffffffffffffffffffffffffff168373ffffffffffffffffffffffffffffffffffffffff1614156105b5576040517f08c379a00000000000000000000000000000000000000000000000000000000081526004016105ac906124c1565b60405180910390fd5b8073ffffffffffffffffffffffffffffffffffffffff166105d4610bf7565b73ffffffffffffffffffffffffffffffffffffffff1614806106035750610602816105fd610bf7565b610a2a565b5b610642576040517f08c379a000000000000000000000000000000000000000000000000000000000815260040161063990612553565b60405180910390fd5b61064c8383610bff565b505050565b61066261065c610bf7565b82610cb8565b6106a1576040517f08c379a0000000000000000000000000000000000000000000000000000000008152600401610698906125e5565b60405180910390fd5b6106ac838383610d4d565b505050565b6106cc8383836040518060200160405280600081525061097d565b505050565b6106e26106dc610bf7565b82610cb8565b610721576040517f08c379a0000000000000000000000000000000000000000000000000000000008152600401610718906125e5565b60405180910390fd5b61072a81610fb4565b50565b6000806002600084815260200190815260200160002060009054906101000a900473ffffffffffffffffffffffffffffffffffffffff169050600073ffffffffffffffffffffffffffffffffffffffff168173ffffffffffffffffffffffffffffffffffffffff1614156107d6576040517f08c379a00000000000000000000000000000000000000000000000000000000081526004016107cd90612651565b60405180910390fd5b80915050919050565b60008073ffffffffffffffffffffffffffffffffffffffff168273ffffffffffffffffffffffffffffffffffffffff161415610850576040517f08c379a0000000000000000000000000000000000000000000000000000000008152600401610847906126e3565b60405180910390fd5b600360008373ffffffffffffffffffffffffffffffffffffffff1673ffffffffffffffffffffffffffffffffffffffff168152602001908152602001600020549050919050565b61089f610fc0565b6108a9600061103e565b565b6000600760009054906101000a900473ffffffffffffffffffffffffffffffffffffffff16905090565b6060600180546108e49061241d565b80601f01602080910402602001604051908101604052809291908181526020018280546109109061241d565b801561095d5780601f106109325761010080835404028352916020019161095d565b820191906000526020600020905b81548152906001019060200180831161094057829003601f168201915b5050505050905090565b610979610972610bf7565b8383611104565b5050565b61098e610988610bf7565b83610cb8565b6109cd576040517f08c379a00000000000000000000000000000000000000000000000000000000081526004016109c4906125e5565b60405180910390fd5b6109d984848484611271565b50505050565b60606109ea826112cd565b9050919050565b6109f9610fc0565b6000610a0560086113e0565b9050610a1160086113ee565b610a1b8382611404565b610a258183611422565b505050565b6000600560008473ffffffffffffffffffffffffffffffffffffffff1673ffffffffffffffffffffffffffffffffffffffff16815260200190815260200160002060008373ffffffffffffffffffffffffffffffffffffffff1673ffffffffffffffffffffffffffffffffffffffff16815260200190815260200160002060009054906101000a900460ff16905092915050565b610ac6610fc0565b600073ffffffffffffffffffffffffffffffffffffffff168173ffffffffffffffffffffffffffffffffffffffff161415610b36576040517f08c379a0000000000000000000000000000000000000000000000000000000008152600401610b2d90612775565b60405180910390fd5b610b3f8161103e565b50565b60007f01ffc9a7000000000000000000000000000000000000000000000000000000007bffffffffffffffffffffffffffffffffffffffffffffffffffffffff1916827bffffffffffffffffffffffffffffffffffffffffffffffffffffffff1916149050919050565b610bb581611496565b610bf4576040517f08c379a0000000000000000000000000000000000000000000000000000000008152600401610beb90612651565b60405180910390fd5b50565b600033905090565b816004600083815260200190815260200160002060006101000a81548173ffffffffffffffffffffffffffffffffffffffff021916908373ffffffffffffffffffffffffffffffffffffffff160217905550808273ffffffffffffffffffffffffffffffffffffffff16610c728361072d565b73ffffffffffffffffffffffffffffffffffffffff167f8c5be1e5ebec7d5bd14f71427d1e84f3dd0314c0f7b2291e5b200ac8c7c3b92560405160405180910390a45050565b600080610cc48361072d565b90508073ffffffffffffffffffffffffffffffffffffffff168473ffffffffffffffffffffffffffffffffffffffff161480610d065750610d058185610a2a565b5b80610d4457508373ffffffffffffffffffffffffffffffffffffffff16610d2c846104f3565b73ffffffffffffffffffffffffffffffffffffffff16145b91505092915050565b8273ffffffffffffffffffffffffffffffffffffffff16610d6d8261072d565b73ffffffffffffffffffffffffffffffffffffffff1614610dc3576040517f08c379a0000000000000000000000000000000000000000000000000000000008152600401610dba90612807565b60405180910390fd5b600073ffffffffffffffffffffffffffffffffffffffff168273ffffffffffffffffffffffffffffffffffffffff161415610e33576040517f08c379a0000000000000000000000000000000000000000000000000000000008152600401610e2a90612899565b60405180910390fd5b610e3e838383611502565b610e49600082610bff565b6001600360008573ffffffffffffffffffffffffffffffffffffffff1673ffffffffffffffffffffffffffffffffffffffff1681526020019081526020016000206000828254610e9991906128e8565b925050819055506001600360008473ffffffffffffffffffffffffffffffffffffffff1673ffffffffffffffffffffffffffffffffffffffff1681526020019081526020016000206000828254610ef0919061291c565b92505081905550816002600083815260200190815260200160002060006101000a81548173ffffffffffffffffffffffffffffffffffffffff021916908373ffffffffffffffffffffffffffffffffffffffff160217905550808273ffffffffffffffffffffffffffffffffffffffff168473ffffffffffffffffffffffffffffffffffffffff167fddf252ad1be2c89b69c2b068fc378daa952ba7f163c4a11628f55a4df523b3ef60405160405180910390a4610faf838383611507565b505050565b610fbd8161150c565b50565b610fc8610bf7565b73ffffffffffffffffffffffffffffffffffffffff16610fe66108ab565b73ffffffffffffffffffffffffffffffffffffffff161461103c576040517f08c379a0000000000000000000000000000000000000000000000000000000008152600401611033906129be565b60405180910390fd5b565b6000600760009054906101000a900473ffffffffffffffffffffffffffffffffffffffff16905081600760006101000a81548173ffffffffffffffffffffffffffffffffffffffff021916908373ffffffffffffffffffffffffffffffffffffffff1602179055508173ffffffffffffffffffffffffffffffffffffffff168173ffffffffffffffffffffffffffffffffffffffff167f8be0079c531659141344cd1fd0a4f28419497f9722a3daafe3b4186f6b6457e060405160405180910390a35050565b8173ffffffffffffffffffffffffffffffffffffffff168373ffffffffffffffffffffffffffffffffffffffff161415611173576040517f08c379a000000000000000000000000000000000000000000000000000000000815260040161116a90612a2a565b60405180910390fd5b80600560008573ffffffffffffffffffffffffffffffffffffffff1673ffffffffffffffffffffffffffffffffffffffff16815260200190815260200160002060008473ffffffffffffffffffffffffffffffffffffffff1673ffffffffffffffffffffffffffffffffffffffff16815260200190815260200160002060006101000a81548160ff0219169083151502179055508173ffffffffffffffffffffffffffffffffffffffff168373ffffffffffffffffffffffffffffffffffffffff167f17307eab39ab6107e8899845ad3d59bd9653f200f220920489ca2b5937696c31836040516112649190611de2565b60405180910390a3505050565b61127c848484610d4d565b6112888484848461155f565b6112c7576040517f08c379a00000000000000000000000000000000000000000000000000000000081526004016112be90612abc565b60405180910390fd5b50505050565b60606112d882610bac565b60006006600084815260200190815260200160002080546112f89061241d565b80601f01602080910402602001604051908101604052809291908181526020018280546113249061241d565b80156113715780601f1061134657610100808354040283529160200191611371565b820191906000526020600020905b81548152906001019060200180831161135457829003601f168201915b5050505050905060006113826116f6565b90506000815114156113985781925050506113db565b6000825111156113cd5780826040516020016113b5929190612b18565b604051602081830303815290604052925050506113db565b6113d68461170d565b925050505b919050565b600081600001549050919050565b6001816000016000828254019250508190555050565b61141e828260405180602001604052806000815250611775565b5050565b61142b82611496565b61146a576040517f08c379a000000000000000000000000000000000000000000000000000000000815260040161146190612bae565b60405180910390fd5b80600660008481526020019081526020016000209080519060200190611491929190611c4b565b505050565b60008073ffffffffffffffffffffffffffffffffffffffff166002600084815260200190815260200160002060009054906101000a900473ffffffffffffffffffffffffffffffffffffffff1673ffffffffffffffffffffffffffffffffffffffff1614159050919050565b505050565b505050565b611515816117d0565b60006006600083815260200190815260200160002080546115359061241d565b90501461155c5760066000828152602001908152602001600020600061155b9190611cd1565b5b50565b60006115808473ffffffffffffffffffffffffffffffffffffffff166118ed565b156116e9578373ffffffffffffffffffffffffffffffffffffffff1663150b7a026115a9610bf7565b8786866040518563ffffffff1660e01b81526004016115cb9493929190612c23565b602060405180830381600087803b1580156115e557600080fd5b505af192505050801561161657506040513d601f19601f820116820180604052508101906116139190612c84565b60015b611699573d8060008114611646576040519150601f19603f3d011682016040523d82523d6000602084013e61164b565b606091505b50600081511415611691576040517f08c379a000000000000000000000000000000000000000000000000000000000815260040161168890612abc565b60405180910390fd5b805181602001fd5b63150b7a0260e01b7bffffffffffffffffffffffffffffffffffffffffffffffffffffffff1916817bffffffffffffffffffffffffffffffffffffffffffffffffffffffff1916149150506116ee565b600190505b949350505050565b606060405180602001604052806000815250905090565b606061171882610bac565b60006117226116f6565b90506000815111611742576040518060200160405280600081525061176d565b8061174c84611910565b60405160200161175d929190612b18565b6040516020818303038152906040525b915050919050565b61177f8383611a71565b61178c600084848461155f565b6117cb576040517f08c379a00000000000000000000000000000000000000000000000000000000081526004016117c290612abc565b60405180910390fd5b505050565b60006117db8261072d565b90506117e981600084611502565b6117f4600083610bff565b6001600360008373ffffffffffffffffffffffffffffffffffffffff1673ffffffffffffffffffffffffffffffffffffffff168152602001908152602001600020600082825461184491906128e8565b925050819055506002600083815260200190815260200160002060006101000a81549073ffffffffffffffffffffffffffffffffffffffff021916905581600073ffffffffffffffffffffffffffffffffffffffff168273ffffffffffffffffffffffffffffffffffffffff167fddf252ad1be2c89b69c2b068fc378daa952ba7f163c4a11628f55a4df523b3ef60405160405180910390a46118e981600084611507565b5050565b6000808273ffffffffffffffffffffffffffffffffffffffff163b119050919050565b60606000821415611958576040518060400160405280600181526020017f30000000000000000000000000000000000000000000000000000000000000008152509050611a6c565b600082905060005b6000821461198a57808061197390612cb1565b915050600a826119839190612d29565b9150611960565b60008167ffffffffffffffff8111156119a6576119a5612103565b5b6040519080825280601f01601f1916602001820160405280156119d85781602001600182028036833780820191505090505b5090505b60008514611a65576001826119f191906128e8565b9150600a85611a009190612d5a565b6030611a0c919061291c565b60f81b818381518110611a2257611a21612d8b565b5b60200101907effffffffffffffffffffffffffffffffffffffffffffffffffffffffffffff1916908160001a905350600a85611a5e9190612d29565b94506119dc565b8093505050505b919050565b600073ffffffffffffffffffffffffffffffffffffffff168273ffffffffffffffffffffffffffffffffffffffff161415611ae1576040517f08c379a0000000000000000000000000000000000000000000000000000000008152600401611ad890612e06565b60405180910390fd5b611aea81611496565b15611b2a576040517f08c379a0000000000000000000000000000000000000000000000000000000008152600401611b2190612e72565b60405180910390fd5b611b3660008383611502565b6001600360008473ffffffffffffffffffffffffffffffffffffffff1673ffffffffffffffffffffffffffffffffffffffff1681526020019081526020016000206000828254611b86919061291c565b92505081905550816002600083815260200190815260200160002060006101000a81548173ffffffffffffffffffffffffffffffffffffffff021916908373ffffffffffffffffffffffffffffffffffffffff160217905550808273ffffffffffffffffffffffffffffffffffffffff16600073ffffffffffffffffffffffffffffffffffffffff167fddf252ad1be2c89b69c2b068fc378daa952ba7f163c4a11628f55a4df523b3ef60405160405180910390a4611c4760008383611507565b5050565b828054611c579061241d565b90600052602060002090601f016020900481019282611c795760008555611cc0565b82601f10611c9257805160ff1916838001178555611cc0565b82800160010185558215611cc0579182015b82811115611cbf578251825591602001919060010190611ca4565b5b509050611ccd9190611d11565b5090565b508054611cdd9061241d565b6000825580601f10611cef5750611d0e565b601f016020900490600052602060002090810190611d0d9190611d11565b5b50565b5b80821115611d2a576000816000905550600101611d12565b5090565b6000604051905090565b600080fd5b600080fd5b60007fffffffff0000000000000000000000000000000000000000000000000000000082169050919050565b611d7781611d42565b8114611d8257600080fd5b50565b600081359050611d9481611d6e565b92915050565b600060208284031215611db057611daf611d38565b5b6000611dbe84828501611d85565b91505092915050565b60008115159050919050565b611ddc81611dc7565b82525050565b6000602082019050611df76000830184611dd3565b92915050565b600081519050919050565b600082825260208201905092915050565b60005b83811015611e37578082015181840152602081019050611e1c565b83811115611e46576000848401525b50505050565b6000601f19601f8301169050919050565b6000611e6882611dfd565b611e728185611e08565b9350611e82818560208601611e19565b611e8b81611e4c565b840191505092915050565b60006020820190508181036000830152611eb08184611e5d565b905092915050565b6000819050919050565b611ecb81611eb8565b8114611ed657600080fd5b50565b600081359050611ee881611ec2565b92915050565b600060208284031215611f0457611f03611d38565b5b6000611f1284828501611ed9565b91505092915050565b600073ffffffffffffffffffffffffffffffffffffffff82169050919050565b6000611f4682611f1b565b9050919050565b611f5681611f3b565b82525050565b6000602082019050611f716000830184611f4d565b92915050565b611f8081611f3b565b8114611f8b57600080fd5b50565b600081359050611f9d81611f77565b92915050565b60008060408385031215611fba57611fb9611d38565b5b6000611fc885828601611f8e565b9250506020611fd985828601611ed9565b9150509250929050565b600080600060608486031215611ffc57611ffb611d38565b5b600061200a86828701611f8e565b935050602061201b86828701611f8e565b925050604061202c86828701611ed9565b9150509250925092565b60006020828403121561204c5761204b611d38565b5b600061205a84828501611f8e565b91505092915050565b61206c81611eb8565b82525050565b60006020820190506120876000830184612063565b92915050565b61209681611dc7565b81146120a157600080fd5b50565b6000813590506120b38161208d565b92915050565b600080604083850312156120d0576120cf611d38565b5b60006120de85828601611f8e565b92505060206120ef858286016120a4565b9150509250929050565b600080fd5b600080fd5b7f4e487b7100000000000000000000000000000000000000000000000000000000600052604160045260246000fd5b61213b82611e4c565b810181811067ffffffffffffffff8211171561215a57612159612103565b5b80604052505050565b600061216d611d2e565b90506121798282612132565b919050565b600067ffffffffffffffff82111561219957612198612103565b5b6121a282611e4c565b9050602081019050919050565b82818337600083830152505050565b60006121d16121cc8461217e565b612163565b9050828152602081018484840111156121ed576121ec6120fe565b5b6121f88482856121af565b509392505050565b600082601f830112612215576122146120f9565b5b81356122258482602086016121be565b91505092915050565b6000806000806080858703121561224857612247611d38565b5b600061225687828801611f8e565b945050602061226787828801611f8e565b935050604061227887828801611ed9565b925050606085013567ffffffffffffffff81111561229957612298611d3d565b5b6122a587828801612200565b91505092959194509250565b600067ffffffffffffffff8211156122cc576122cb612103565b5b6122d582611e4c565b9050602081019050919050565b60006122f56122f0846122b1565b612163565b905082815260208101848484011115612311576123106120fe565b5b61231c8482856121af565b509392505050565b600082601f830112612339576123386120f9565b5b81356123498482602086016122e2565b91505092915050565b6000806040838503121561236957612368611d38565b5b600061237785828601611f8e565b925050602083013567ffffffffffffffff81111561239857612397611d3d565b5b6123a485828601612324565b9150509250929050565b600080604083850312156123c5576123c4611d38565b5b60006123d385828601611f8e565b92505060206123e485828601611f8e565b9150509250929050565b7f4e487b7100000000000000000000000000000000000000000000000000000000600052602260045260246000fd5b6000600282049050600182168061243557607f821691505b60208210811415612449576124486123ee565b5b50919050565b7f4552433732313a20617070726f76616c20746f2063757272656e74206f776e6560008201527f7200000000000000000000000000000000000000000000000000000000000000602082015250565b60006124ab602183611e08565b91506124b68261244f565b604082019050919050565b600060208201905081810360008301526124da8161249e565b9050919050565b7f4552433732313a20617070726f76652063616c6c6572206973206e6f7420746f60008201527f6b656e206f776e6572206e6f7220617070726f76656420666f7220616c6c0000602082015250565b600061253d603e83611e08565b9150612548826124e1565b604082019050919050565b6000602082019050818103600083015261256c81612530565b9050919050565b7f4552433732313a2063616c6c6572206973206e6f7420746f6b656e206f776e6560008201527f72206e6f7220617070726f766564000000000000000000000000000000000000602082015250565b60006125cf602e83611e08565b91506125da82612573565b604082019050919050565b600060208201905081810360008301526125fe816125c2565b9050919050565b7f4552433732313a20696e76616c696420746f6b656e2049440000000000000000600082015250565b600061263b601883611e08565b915061264682612605565b602082019050919050565b6000602082019050818103600083015261266a8161262e565b9050919050565b7f4552433732313a2061646472657373207a65726f206973206e6f74206120766160008201527f6c6964206f776e65720000000000000000000000000000000000000000000000602082015250565b60006126cd602983611e08565b91506126d882612671565b604082019050919050565b600060208201905081810360008301526126fc816126c0565b9050919050565b7f4f776e61626c653a206e6577206f776e657220697320746865207a65726f206160008201527f6464726573730000000000000000000000000000000000000000000000000000602082015250565b600061275f602683611e08565b915061276a82612703565b604082019050919050565b6000602082019050818103600083015261278e81612752565b9050919050565b7f4552433732313a207472616e736665722066726f6d20696e636f72726563742060008201527f6f776e6572000000000000000000000000000000000000000000000000000000602082015250565b60006127f1602583611e08565b91506127fc82612795565b604082019050919050565b60006020820190508181036000830152612820816127e4565b9050919050565b7f4552433732313a207472616e7366657220746f20746865207a65726f2061646460008201527f7265737300000000000000000000000000000000000000000000000000000000602082015250565b6000612883602483611e08565b915061288e82612827565b604082019050919050565b600060208201905081810360008301526128b281612876565b9050919050565b7f4e487b7100000000000000000000000000000000000000000000000000000000600052601160045260246000fd5b60006128f382611eb8565b91506128fe83611eb8565b925082821015612911576129106128b9565b5b828203905092915050565b600061292782611eb8565b915061293283611eb8565b9250827fffffffffffffffffffffffffffffffffffffffffffffffffffffffffffffffff03821115612967576129666128b9565b5b828201905092915050565b7f4f776e61626c653a2063616c6c6572206973206e6f7420746865206f776e6572600082015250565b60006129a8602083611e08565b91506129b382612972565b602082019050919050565b600060208201905081810360008301526129d78161299b565b9050919050565b7f4552433732313a20617070726f766520746f2063616c6c657200000000000000600082015250565b6000612a14601983611e08565b9150612a1f826129de565b602082019050919050565b60006020820190508181036000830152612a4381612a07565b9050919050565b7f4552433732313a207472616e7366657220746f206e6f6e20455243373231526560008201527f63656976657220696d706c656d656e7465720000000000000000000000000000602082015250565b6000612aa6603283611e08565b9150612ab182612a4a565b604082019050919050565b60006020820190508181036000830152612ad581612a99565b9050919050565b600081905092915050565b6000612af282611dfd565b612afc8185612adc565b9350612b0c818560208601611e19565b80840191505092915050565b6000612b248285612ae7565b9150612b308284612ae7565b91508190509392505050565b7f45524337323155524953746f726167653a2055524920736574206f66206e6f6e60008201527f6578697374656e7420746f6b656e000000000000000000000000000000000000602082015250565b6000612b98602e83611e08565b9150612ba382612b3c565b604082019050919050565b60006020820190508181036000830152612bc781612b8b565b9050919050565b600081519050919050565b600082825260208201905092915050565b6000612bf582612bce565b612bff8185612bd9565b9350612c0f818560208601611e19565b612c1881611e4c565b840191505092915050565b6000608082019050612c386000830187611f4d565b612c456020830186611f4d565b612c526040830185612063565b8181036060830152612c648184612bea565b905095945050505050565b600081519050612c7e81611d6e565b92915050565b600060208284031215612c9a57612c99611d38565b5b6000612ca884828501612c6f565b91505092915050565b6000612cbc82611eb8565b91507fffffffffffffffffffffffffffffffffffffffffffffffffffffffffffffffff821415612cef57612cee6128b9565b5b600182019050919050565b7f4e487b7100000000000000000000000000000000000000000000000000000000600052601260045260246000fd5b6000612d3482611eb8565b9150612d3f83611eb8565b925082612d4f57612d4e612cfa565b5b828204905092915050565b6000612d6582611eb8565b9150612d7083611eb8565b925082612d8057612d7f612cfa565b5b828206905092915050565b7f4e487b7100000000000000000000000000000000000000000000000000000000600052603260045260246000fd5b7f4552433732313a206d696e7420746f20746865207a65726f2061646472657373600082015250565b6000612df0602083611e08565b9150612dfb82612dba565b602082019050919050565b60006020820190508181036000830152612e1f81612de3565b9050919050565b7f4552433732313a20746f6b656e20616c7265616479206d696e74656400000000600082015250565b6000612e5c601c83611e08565b9150612e6782612e26565b602082019050919050565b60006020820190508181036000830152612e8b81612e4f565b905091905056fea26469706673582212209cb4de2a9341e2d5dbc024e5050d240b393cfce0a6b87b06265d1583e931202364736f6c63430008090033",
  "linkReferences": {},
  "deployedLinkReferences": {}
}