{
  "_format": "hh-sol-artifact-1",
  "contractName": "TestERC1155",
  "sourceName": "contracts/ERC1155.sol",
  "abi": [
    {
      "inputs": [
        {
          "internalType": "string",
          "name": "baseUri",
          "type": "string"
        }
      ],
      "stateMutability": "nonpayable",
      "type": "constructor"
    },
    {
      "anonymous": false,
      "inputs": [
        {
          "indexed": true,
          "internalType": "address",
          "name": "account",
          "type": "address"
        },
        {
          "indexed": true,
          "internalType": "address",
          "name": "operator",
          "type": "address"
        },
        {
          "indexed": false,
          "internalType": "bool",
          "name": "approved",
          "type": "bool"
        }
      ],
      "name": "ApprovalForAll",
      "type": "event"
    },
    {
      "anonymous": false,
      "inputs": [
        {
          "indexed": true,
          "internalType": "address",
          "name": "previousOwner",
          "type": "address"
        },
        {
          "indexed": true,
          "internalType": "address",
          "name": "newOwner",
          "type": "address"
        }
      ],
      "name": "OwnershipTransferred",
      "type": "event"
    },
    {
      "anonymous": false,
      "inputs": [
        {
          "indexed": true,
          "internalType": "address",
          "name": "operator",
          "type": "address"
        },
        {
          "indexed": true,
          "internalType": "address",
          "name": "from",
          "type": "address"
        },
        {
          "indexed": true,
          "internalType": "address",
          "name": "to",
          "type": "address"
        },
        {
          "indexed": false,
          "internalType": "uint256[]",
          "name": "ids",
          "type": "uint256[]"
        },
        {
          "indexed": false,
          "internalType": "uint256[]",
          "name": "values",
          "type": "uint256[]"
        }
      ],
      "name": "TransferBatch",
      "type": "event"
    },
    {
      "anonymous": false,
      "inputs": [
        {
          "indexed": true,
          "internalType": "address",
          "name": "operator",
          "type": "address"
        },
        {
          "indexed": true,
          "internalType": "address",
          "name": "from",
          "type": "address"
        },
        {
          "indexed": true,
          "internalType": "address",
          "name": "to",
          "type": "address"
        },
        {
          "indexed": false,
          "internalType": "uint256",
          "name": "id",
          "type": "uint256"
        },
        {
          "indexed": false,
          "internalType": "uint256",
          "name": "value",
          "type": "uint256"
        }
      ],
      "name": "TransferSingle",
      "type": "event"
    },
    {
      "anonymous": false,
      "inputs": [
        {
          "indexed": false,
          "internalType": "string",
          "name": "value",
          "type": "string"
        },
        {
          "indexed": true,
          "internalType": "uint256",
          "name": "id",
          "type": "uint256"
        }
      ],
      "name": "URI",
      "type": "event"
    },
    {
      "inputs": [
        {
          "internalType": "address",
          "name": "account",
          "type": "address"
        },
        {
          "internalType": "uint256",
          "name": "id",
          "type": "uint256"
        }
      ],
      "name": "balanceOf",
      "outputs": [
        {
          "internalType": "uint256",
          "name": "",
          "type": "uint256"
        }
      ],
      "stateMutability": "view",
      "type": "function"
    },
    {
      "inputs": [
        {
          "internalType": "address[]",
          "name": "accounts",
          "type": "address[]"
        },
        {
          "internalType": "uint256[]",
          "name": "ids",
          "type": "uint256[]"
        }
      ],
      "name": "balanceOfBatch",
      "outputs": [
        {
          "internalType": "uint256[]",
          "name": "",
          "type": "uint256[]"
        }
      ],
      "stateMutability": "view",
      "type": "function"
    },
    {
      "inputs": [
        {
          "internalType": "address",
          "name": "account",
          "type": "address"
        },
        {
          "internalType": "address",
          "name": "operator",
          "type": "address"
        }
      ],
      "name": "isApprovedForAll",
      "outputs": [
        {
          "internalType": "bool",
          "name": "",
          "type": "bool"
        }
      ],
      "stateMutability": "view",
      "type": "function"
    },
    {
      "inputs": [
        {
          "internalType": "address",
          "name": "account",
          "type": "address"
        },
        {
          "internalType": "uint256",
          "name": "id",
          "type": "uint256"
        },
        {
          "internalType": "uint256",
          "name": "amount",
          "type": "uint256"
        },
        {
          "internalType": "bytes",
          "name": "data",
          "type": "bytes"
        }
      ],
      "name": "mint",
      "outputs": [],
      "stateMutability": "nonpayable",
      "type": "function"
    },
    {
      "inputs": [
        {
          "internalType": "address",
          "name": "to",
          "type": "address"
        },
        {
          "internalType": "uint256[]",
          "name": "ids",
          "type": "uint256[]"
        },
        {
          "internalType": "uint256[]",
          "name": "amounts",
          "type": "uint256[]"
        },
        {
          "internalType": "bytes",
          "name": "data",
          "type": "bytes"
        }
      ],
      "name": "mintBatch",
      "outputs": [],
      "stateMutability": "nonpayable",
      "type": "function"
    },
    {
      "inputs": [],
      "name": "owner",
      "outputs": [
        {
          "internalType": "address",
          "name": "",
          "type": "address"
        }
      ],
      "stateMutability": "view",
      "type": "function"
    },
    {
      "inputs": [],
      "name": "renounceOwnership",
      "outputs": [],
      "stateMutability": "nonpayable",
      "type": "function"
    },
    {
      "inputs": [
        {
          "internalType": "address",
          "name": "from",
          "type": "address"
        },
        {
          "internalType": "address",
          "name": "to",
          "type": "address"
        },
        {
          "internalType": "uint256[]",
          "name": "ids",
          "type": "uint256[]"
        },
        {
          "internalType": "uint256[]",
          "name": "amounts",
          "type": "uint256[]"
        },
        {
          "internalType": "bytes",
          "name": "data",
          "type": "bytes"
        }
      ],
      "name": "safeBatchTransferFrom",
      "outputs": [],
      "stateMutability": "nonpayable",
      "type": "function"
    },
    {
      "inputs": [
        {
          "internalType": "address",
          "name": "from",
          "type": "address"
        },
        {
          "internalType": "address",
          "name": "to",
          "type": "address"
        },
        {
          "internalType": "uint256",
          "name": "id",
          "type": "uint256"
        },
        {
          "internalType": "uint256",
          "name": "amount",
          "type": "uint256"
        },
        {
          "internalType": "bytes",
          "name": "data",
          "type": "bytes"
        }
      ],
      "name": "safeTransferFrom",
      "outputs": [],
      "stateMutability": "nonpayable",
      "type": "function"
    },
    {
      "inputs": [
        {
          "internalType": "address",
          "name": "operator",
          "type": "address"
        },
        {
          "internalType": "bool",
          "name": "approved",
          "type": "bool"
        }
      ],
      "name": "setApprovalForAll",
      "outputs": [],
      "stateMutability": "nonpayable",
      "type": "function"
    },
    {
      "inputs": [
        {
          "internalType": "string",
          "name": "newuri",
          "type": "string"
        }
      ],
      "name": "setURI",
      "outputs": [],
      "stateMutability": "nonpayable",
      "type": "function"
    },
    {
      "inputs": [
        {
          "internalType": "bytes4",
          "name": "interfaceId",
          "type": "bytes4"
        }
      ],
      "name": "supportsInterface",
      "outputs": [
        {
          "internalType": "bool",
          "name": "",
          "type": "bool"
        }
      ],
      "stateMutability": "view",
      "type": "function"
    },
    {
      "inputs": [
        {
          "internalType": "address",
          "name": "newOwner",
          "type": "address"
        }
      ],
      "name": "transferOwnership",
      "outputs": [],
      "stateMutability": "nonpayable",
      "type": "function"
    },
    {
      "inputs": [
        {
          "internalType": "uint256",
          "name": "",
          "type": "uint256"
        }
      ],
      "name": "uri",
      "outputs": [
        {
          "internalType": "string",
          "name": "",
          "type": "string"
        }
      ],
      "stateMutability": "view",
      "type": "function"
    }
  ],
  "bytecode": "0x60806040523480156200001157600080fd5b506040516200359f3803806200359f8339818101604052810190620000379190620003a8565b8062000049816200007160201b60201c565b506200006a6200005e6200008d60201b60201c565b6200009560201b60201c565b506200045e565b8060029080519060200190620000899291906200015b565b5050565b600033905090565b6000600360009054906101000a900473ffffffffffffffffffffffffffffffffffffffff16905081600360006101000a81548173ffffffffffffffffffffffffffffffffffffffff021916908373ffffffffffffffffffffffffffffffffffffffff1602179055508173ffffffffffffffffffffffffffffffffffffffff168173ffffffffffffffffffffffffffffffffffffffff167f8be0079c531659141344cd1fd0a4f28419497f9722a3daafe3b4186f6b6457e060405160405180910390a35050565b828054620001699062000428565b90600052602060002090601f0160209004810192826200018d5760008555620001d9565b82601f10620001a857805160ff1916838001178555620001d9565b82800160010185558215620001d9579182015b82811115620001d8578251825591602001919060010190620001bb565b5b509050620001e89190620001ec565b5090565b5b8082111562000207576000816000905550600101620001ed565b5090565b6000604051905090565b600080fd5b600080fd5b600080fd5b600080fd5b6000601f19601f8301169050919050565b7f4e487b7100000000000000000000000000000000000000000000000000000000600052604160045260246000fd5b620002748262000229565b810181811067ffffffffffffffff821117156200029657620002956200023a565b5b80604052505050565b6000620002ab6200020b565b9050620002b9828262000269565b919050565b600067ffffffffffffffff821115620002dc57620002db6200023a565b5b620002e78262000229565b9050602081019050919050565b60005b8381101562000314578082015181840152602081019050620002f7565b8381111562000324576000848401525b50505050565b6000620003416200033b84620002be565b6200029f565b90508281526020810184848401111562000360576200035f62000224565b5b6200036d848285620002f4565b509392505050565b600082601f8301126200038d576200038c6200021f565b5b81516200039f8482602086016200032a565b91505092915050565b600060208284031215620003c157620003c062000215565b5b600082015167ffffffffffffffff811115620003e257620003e16200021a565b5b620003f08482850162000375565b91505092915050565b7f4e487b7100000000000000000000000000000000000000000000000000000000600052602260045260246000fd5b600060028204905060018216806200044157607f821691505b60208210811415620004585762000457620003f9565b5b50919050565b613131806200046e6000396000f3fe608060405234801561001057600080fd5b50600436106100e95760003560e01c8063715018a61161008c578063a22cb46511610066578063a22cb46514610246578063e985e9c514610262578063f242432a14610292578063f2fde38b146102ae576100e9565b8063715018a614610202578063731133e91461020c5780638da5cb5b14610228576100e9565b80630e89341c116100c85780630e89341c1461016a5780631f7fdffa1461019a5780632eb2c2d6146101b65780634e1273f4146101d2576100e9565b8062fdd58e146100ee57806301ffc9a71461011e57806302fe53051461014e575b600080fd5b61010860048036038101906101039190611bb7565b6102ca565b6040516101159190611c06565b60405180910390f35b61013860048036038101906101339190611c79565b610393565b6040516101459190611cc1565b60405180910390f35b61016860048036038101906101639190611e22565b610475565b005b610184600480360381019061017f9190611e6b565b610489565b6040516101919190611f20565b60405180910390f35b6101b460048036038101906101af91906120ab565b61051d565b005b6101d060048036038101906101cb9190612166565b610537565b005b6101ec60048036038101906101e791906122f8565b6105d8565b6040516101f9919061242e565b60405180910390f35b61020a6106f1565b005b61022660048036038101906102219190612450565b610705565b005b61023061071f565b60405161023d91906124e2565b60405180910390f35b610260600480360381019061025b9190612529565b610749565b005b61027c60048036038101906102779190612569565b61075f565b6040516102899190611cc1565b60405180910390f35b6102ac60048036038101906102a791906125a9565b6107f3565b005b6102c860048036038101906102c39190612640565b610894565b005b60008073ffffffffffffffffffffffffffffffffffffffff168373ffffffffffffffffffffffffffffffffffffffff16141561033b576040517f08c379a0000000000000000000000000000000000000000000000000000000008152600401610332906126df565b60405180910390fd5b60008083815260200190815260200160002060008473ffffffffffffffffffffffffffffffffffffffff1673ffffffffffffffffffffffffffffffffffffffff16815260200190815260200160002054905092915050565b60007fd9b67a26000000000000000000000000000000000000000000000000000000007bffffffffffffffffffffffffffffffffffffffffffffffffffffffff1916827bffffffffffffffffffffffffffffffffffffffffffffffffffffffff1916148061045e57507f0e89341c000000000000000000000000000000000000000000000000000000007bffffffffffffffffffffffffffffffffffffffffffffffffffffffff1916827bffffffffffffffffffffffffffffffffffffffffffffffffffffffff1916145b8061046e575061046d82610918565b5b9050919050565b61047d610982565b61048681610a00565b50565b6060600280546104989061272e565b80601f01602080910402602001604051908101604052809291908181526020018280546104c49061272e565b80156105115780601f106104e657610100808354040283529160200191610511565b820191906000526020600020905b8154815290600101906020018083116104f457829003601f168201915b50505050509050919050565b610525610982565b61053184848484610a1a565b50505050565b61053f610c47565b73ffffffffffffffffffffffffffffffffffffffff168573ffffffffffffffffffffffffffffffffffffffff16148061058557506105848561057f610c47565b61075f565b5b6105c4576040517f08c379a00000000000000000000000000000000000000000000000000000000081526004016105bb906127d2565b60405180910390fd5b6105d18585858585610c4f565b5050505050565b6060815183511461061e576040517f08c379a000000000000000000000000000000000000000000000000000000000815260040161061590612864565b60405180910390fd5b6000835167ffffffffffffffff81111561063b5761063a611cf7565b5b6040519080825280602002602001820160405280156106695781602001602082028036833780820191505090505b50905060005b84518110156106e6576106b685828151811061068e5761068d612884565b5b60200260200101518583815181106106a9576106a8612884565b5b60200260200101516102ca565b8282815181106106c9576106c8612884565b5b602002602001018181525050806106df906128e2565b905061066f565b508091505092915050565b6106f9610982565b6107036000610f71565b565b61070d610982565b61071984848484611037565b50505050565b6000600360009054906101000a900473ffffffffffffffffffffffffffffffffffffffff16905090565b61075b610754610c47565b83836111e8565b5050565b6000600160008473ffffffffffffffffffffffffffffffffffffffff1673ffffffffffffffffffffffffffffffffffffffff16815260200190815260200160002060008373ffffffffffffffffffffffffffffffffffffffff1673ffffffffffffffffffffffffffffffffffffffff16815260200190815260200160002060009054906101000a900460ff16905092915050565b6107fb610c47565b73ffffffffffffffffffffffffffffffffffffffff168573ffffffffffffffffffffffffffffffffffffffff16148061084157506108408561083b610c47565b61075f565b5b610880576040517f08c379a0000000000000000000000000000000000000000000000000000000008152600401610877906127d2565b60405180910390fd5b61088d8585858585611355565b5050505050565b61089c610982565b600073ffffffffffffffffffffffffffffffffffffffff168173ffffffffffffffffffffffffffffffffffffffff16141561090c576040517f08c379a00000000000000000000000000000000000000000000000000000000081526004016109039061299d565b60405180910390fd5b61091581610f71565b50565b60007f01ffc9a7000000000000000000000000000000000000000000000000000000007bffffffffffffffffffffffffffffffffffffffffffffffffffffffff1916827bffffffffffffffffffffffffffffffffffffffffffffffffffffffff1916149050919050565b61098a610c47565b73ffffffffffffffffffffffffffffffffffffffff166109a861071f565b73ffffffffffffffffffffffffffffffffffffffff16146109fe576040517f08c379a00000000000000000000000000000000000000000000000000000000081526004016109f590612a09565b60405180910390fd5b565b8060029080519060200190610a16929190611a6c565b5050565b600073ffffffffffffffffffffffffffffffffffffffff168473ffffffffffffffffffffffffffffffffffffffff161415610a8a576040517f08c379a0000000000000000000000000000000000000000000000000000000008152600401610a8190612a9b565b60405180910390fd5b8151835114610ace576040517f08c379a0000000000000000000000000000000000000000000000000000000008152600401610ac590612b2d565b60405180910390fd5b6000610ad8610c47565b9050610ae9816000878787876115f1565b60005b8451811015610ba257838181518110610b0857610b07612884565b5b6020026020010151600080878481518110610b2657610b25612884565b5b6020026020010151815260200190815260200160002060008873ffffffffffffffffffffffffffffffffffffffff1673ffffffffffffffffffffffffffffffffffffffff1681526020019081526020016000206000828254610b889190612b4d565b925050819055508080610b9a906128e2565b915050610aec565b508473ffffffffffffffffffffffffffffffffffffffff16600073ffffffffffffffffffffffffffffffffffffffff168273ffffffffffffffffffffffffffffffffffffffff167f4a39dc06d4c0dbc64b70af90fd698a233a518aa5d07e595d983b8c0526c8f7fb8787604051610c1a929190612ba3565b60405180910390a4610c31816000878787876115f9565b610c4081600087878787611601565b5050505050565b600033905090565b8151835114610c93576040517f08c379a0000000000000000000000000000000000000000000000000000000008152600401610c8a90612b2d565b60405180910390fd5b600073ffffffffffffffffffffffffffffffffffffffff168473ffffffffffffffffffffffffffffffffffffffff161415610d03576040517f08c379a0000000000000000000000000000000000000000000000000000000008152600401610cfa90612c4c565b60405180910390fd5b6000610d0d610c47565b9050610d1d8187878787876115f1565b60005b8451811015610ece576000858281518110610d3e57610d3d612884565b5b602002602001015190506000858381518110610d5d57610d5c612884565b5b60200260200101519050600080600084815260200190815260200160002060008b73ffffffffffffffffffffffffffffffffffffffff1673ffffffffffffffffffffffffffffffffffffffff16815260200190815260200160002054905081811015610dfe576040517f08c379a0000000000000000000000000000000000000000000000000000000008152600401610df590612cde565b60405180910390fd5b81810360008085815260200190815260200160002060008c73ffffffffffffffffffffffffffffffffffffffff1673ffffffffffffffffffffffffffffffffffffffff168152602001908152602001600020819055508160008085815260200190815260200160002060008b73ffffffffffffffffffffffffffffffffffffffff1673ffffffffffffffffffffffffffffffffffffffff1681526020019081526020016000206000828254610eb39190612b4d565b9250508190555050505080610ec7906128e2565b9050610d20565b508473ffffffffffffffffffffffffffffffffffffffff168673ffffffffffffffffffffffffffffffffffffffff168273ffffffffffffffffffffffffffffffffffffffff167f4a39dc06d4c0dbc64b70af90fd698a233a518aa5d07e595d983b8c0526c8f7fb8787604051610f45929190612ba3565b60405180910390a4610f5b8187878787876115f9565b610f69818787878787611601565b505050505050565b6000600360009054906101000a900473ffffffffffffffffffffffffffffffffffffffff16905081600360006101000a81548173ffffffffffffffffffffffffffffffffffffffff021916908373ffffffffffffffffffffffffffffffffffffffff1602179055508173ffffffffffffffffffffffffffffffffffffffff168173ffffffffffffffffffffffffffffffffffffffff167f8be0079c531659141344cd1fd0a4f28419497f9722a3daafe3b4186f6b6457e060405160405180910390a35050565b600073ffffffffffffffffffffffffffffffffffffffff168473ffffffffffffffffffffffffffffffffffffffff1614156110a7576040517f08c379a000000000000000000000000000000000000000000000000000000000815260040161109e90612a9b565b60405180910390fd5b60006110b1610c47565b905060006110be856117e8565b905060006110cb856117e8565b90506110dc836000898585896115f1565b8460008088815260200190815260200160002060008973ffffffffffffffffffffffffffffffffffffffff1673ffffffffffffffffffffffffffffffffffffffff168152602001908152602001600020600082825461113b9190612b4d565b925050819055508673ffffffffffffffffffffffffffffffffffffffff16600073ffffffffffffffffffffffffffffffffffffffff168473ffffffffffffffffffffffffffffffffffffffff167fc3d58168c5ae7397731d063d5bbf3d657854427343f4c083240f7aacaa2d0f6289896040516111b9929190612cfe565b60405180910390a46111d0836000898585896115f9565b6111df83600089898989611862565b50505050505050565b8173ffffffffffffffffffffffffffffffffffffffff168373ffffffffffffffffffffffffffffffffffffffff161415611257576040517f08c379a000000000000000000000000000000000000000000000000000000000815260040161124e90612d99565b60405180910390fd5b80600160008573ffffffffffffffffffffffffffffffffffffffff1673ffffffffffffffffffffffffffffffffffffffff16815260200190815260200160002060008473ffffffffffffffffffffffffffffffffffffffff1673ffffffffffffffffffffffffffffffffffffffff16815260200190815260200160002060006101000a81548160ff0219169083151502179055508173ffffffffffffffffffffffffffffffffffffffff168373ffffffffffffffffffffffffffffffffffffffff167f17307eab39ab6107e8899845ad3d59bd9653f200f220920489ca2b5937696c31836040516113489190611cc1565b60405180910390a3505050565b600073ffffffffffffffffffffffffffffffffffffffff168473ffffffffffffffffffffffffffffffffffffffff1614156113c5576040517f08c379a00000000000000000000000000000000000000000000000000000000081526004016113bc90612c4c565b60405180910390fd5b60006113cf610c47565b905060006113dc856117e8565b905060006113e9856117e8565b90506113f98389898585896115f1565b600080600088815260200190815260200160002060008a73ffffffffffffffffffffffffffffffffffffffff1673ffffffffffffffffffffffffffffffffffffffff16815260200190815260200160002054905085811015611490576040517f08c379a000000000000000000000000000000000000000000000000000000000815260040161148790612cde565b60405180910390fd5b85810360008089815260200190815260200160002060008b73ffffffffffffffffffffffffffffffffffffffff1673ffffffffffffffffffffffffffffffffffffffff168152602001908152602001600020819055508560008089815260200190815260200160002060008a73ffffffffffffffffffffffffffffffffffffffff1673ffffffffffffffffffffffffffffffffffffffff16815260200190815260200160002060008282546115459190612b4d565b925050819055508773ffffffffffffffffffffffffffffffffffffffff168973ffffffffffffffffffffffffffffffffffffffff168573ffffffffffffffffffffffffffffffffffffffff167fc3d58168c5ae7397731d063d5bbf3d657854427343f4c083240f7aacaa2d0f628a8a6040516115c2929190612cfe565b60405180910390a46115d8848a8a86868a6115f9565b6115e6848a8a8a8a8a611862565b505050505050505050565b505050505050565b505050505050565b6116208473ffffffffffffffffffffffffffffffffffffffff16611a49565b156117e0578373ffffffffffffffffffffffffffffffffffffffff1663bc197c8187878686866040518663ffffffff1660e01b8152600401611666959493929190612e0e565b602060405180830381600087803b15801561168057600080fd5b505af19250505080156116b157506040513d601f19601f820116820180604052508101906116ae9190612e8b565b60015b611757576116bd612ec5565b806308c379a0141561171a57506116d2612ee7565b806116dd575061171c565b806040517f08c379a00000000000000000000000000000000000000000000000000000000081526004016117119190611f20565b60405180910390fd5b505b6040517f08c379a000000000000000000000000000000000000000000000000000000000815260040161174e90612fef565b60405180910390fd5b63bc197c8160e01b7bffffffffffffffffffffffffffffffffffffffffffffffffffffffff1916817bffffffffffffffffffffffffffffffffffffffffffffffffffffffff1916146117de576040517f08c379a00000000000000000000000000000000000000000000000000000000081526004016117d590613081565b60405180910390fd5b505b505050505050565b60606000600167ffffffffffffffff81111561180757611806611cf7565b5b6040519080825280602002602001820160405280156118355781602001602082028036833780820191505090505b509050828160008151811061184d5761184c612884565b5b60200260200101818152505080915050919050565b6118818473ffffffffffffffffffffffffffffffffffffffff16611a49565b15611a41578373ffffffffffffffffffffffffffffffffffffffff1663f23a6e6187878686866040518663ffffffff1660e01b81526004016118c79594939291906130a1565b602060405180830381600087803b1580156118e157600080fd5b505af192505050801561191257506040513d601f19601f8201168201806040525081019061190f9190612e8b565b60015b6119b85761191e612ec5565b806308c379a0141561197b5750611933612ee7565b8061193e575061197d565b806040517f08c379a00000000000000000000000000000000000000000000000000000000081526004016119729190611f20565b60405180910390fd5b505b6040517f08c379a00000000000000000000000000000000000000000000000000000000081526004016119af90612fef565b60405180910390fd5b63f23a6e6160e01b7bffffffffffffffffffffffffffffffffffffffffffffffffffffffff1916817bffffffffffffffffffffffffffffffffffffffffffffffffffffffff191614611a3f576040517f08c379a0000000000000000000000000000000000000000000000000000000008152600401611a3690613081565b60405180910390fd5b505b505050505050565b6000808273ffffffffffffffffffffffffffffffffffffffff163b119050919050565b828054611a789061272e565b90600052602060002090601f016020900481019282611a9a5760008555611ae1565b82601f10611ab357805160ff1916838001178555611ae1565b82800160010185558215611ae1579182015b82811115611ae0578251825591602001919060010190611ac5565b5b509050611aee9190611af2565b5090565b5b80821115611b0b576000816000905550600101611af3565b5090565b6000604051905090565b600080fd5b600080fd5b600073ffffffffffffffffffffffffffffffffffffffff82169050919050565b6000611b4e82611b23565b9050919050565b611b5e81611b43565b8114611b6957600080fd5b50565b600081359050611b7b81611b55565b92915050565b6000819050919050565b611b9481611b81565b8114611b9f57600080fd5b50565b600081359050611bb181611b8b565b92915050565b60008060408385031215611bce57611bcd611b19565b5b6000611bdc85828601611b6c565b9250506020611bed85828601611ba2565b9150509250929050565b611c0081611b81565b82525050565b6000602082019050611c1b6000830184611bf7565b92915050565b60007fffffffff0000000000000000000000000000000000000000000000000000000082169050919050565b611c5681611c21565b8114611c6157600080fd5b50565b600081359050611c7381611c4d565b92915050565b600060208284031215611c8f57611c8e611b19565b5b6000611c9d84828501611c64565b91505092915050565b60008115159050919050565b611cbb81611ca6565b82525050565b6000602082019050611cd66000830184611cb2565b92915050565b600080fd5b600080fd5b6000601f19601f8301169050919050565b7f4e487b7100000000000000000000000000000000000000000000000000000000600052604160045260246000fd5b611d2f82611ce6565b810181811067ffffffffffffffff82111715611d4e57611d4d611cf7565b5b80604052505050565b6000611d61611b0f565b9050611d6d8282611d26565b919050565b600067ffffffffffffffff821115611d8d57611d8c611cf7565b5b611d9682611ce6565b9050602081019050919050565b82818337600083830152505050565b6000611dc5611dc084611d72565b611d57565b905082815260208101848484011115611de157611de0611ce1565b5b611dec848285611da3565b509392505050565b600082601f830112611e0957611e08611cdc565b5b8135611e19848260208601611db2565b91505092915050565b600060208284031215611e3857611e37611b19565b5b600082013567ffffffffffffffff811115611e5657611e55611b1e565b5b611e6284828501611df4565b91505092915050565b600060208284031215611e8157611e80611b19565b5b6000611e8f84828501611ba2565b91505092915050565b600081519050919050565b600082825260208201905092915050565b60005b83811015611ed2578082015181840152602081019050611eb7565b83811115611ee1576000848401525b50505050565b6000611ef282611e98565b611efc8185611ea3565b9350611f0c818560208601611eb4565b611f1581611ce6565b840191505092915050565b60006020820190508181036000830152611f3a8184611ee7565b905092915050565b600067ffffffffffffffff821115611f5d57611f5c611cf7565b5b602082029050602081019050919050565b600080fd5b6000611f86611f8184611f42565b611d57565b90508083825260208201905060208402830185811115611fa957611fa8611f6e565b5b835b81811015611fd25780611fbe8882611ba2565b845260208401935050602081019050611fab565b5050509392505050565b600082601f830112611ff157611ff0611cdc565b5b8135612001848260208601611f73565b91505092915050565b600067ffffffffffffffff82111561202557612024611cf7565b5b61202e82611ce6565b9050602081019050919050565b600061204e6120498461200a565b611d57565b90508281526020810184848401111561206a57612069611ce1565b5b612075848285611da3565b509392505050565b600082601f83011261209257612091611cdc565b5b81356120a284826020860161203b565b91505092915050565b600080600080608085870312156120c5576120c4611b19565b5b60006120d387828801611b6c565b945050602085013567ffffffffffffffff8111156120f4576120f3611b1e565b5b61210087828801611fdc565b935050604085013567ffffffffffffffff81111561212157612120611b1e565b5b61212d87828801611fdc565b925050606085013567ffffffffffffffff81111561214e5761214d611b1e565b5b61215a8782880161207d565b91505092959194509250565b600080600080600060a0868803121561218257612181611b19565b5b600061219088828901611b6c565b95505060206121a188828901611b6c565b945050604086013567ffffffffffffffff8111156121c2576121c1611b1e565b5b6121ce88828901611fdc565b935050606086013567ffffffffffffffff8111156121ef576121ee611b1e565b5b6121fb88828901611fdc565b925050608086013567ffffffffffffffff81111561221c5761221b611b1e565b5b6122288882890161207d565b9150509295509295909350565b600067ffffffffffffffff8211156122505761224f611cf7565b5b602082029050602081019050919050565b600061227461226f84612235565b611d57565b9050808382526020820190506020840283018581111561229757612296611f6e565b5b835b818110156122c057806122ac8882611b6c565b845260208401935050602081019050612299565b5050509392505050565b600082601f8301126122df576122de611cdc565b5b81356122ef848260208601612261565b91505092915050565b6000806040838503121561230f5761230e611b19565b5b600083013567ffffffffffffffff81111561232d5761232c611b1e565b5b612339858286016122ca565b925050602083013567ffffffffffffffff81111561235a57612359611b1e565b5b61236685828601611fdc565b9150509250929050565b600081519050919050565b600082825260208201905092915050565b6000819050602082019050919050565b6123a581611b81565b82525050565b60006123b7838361239c565b60208301905092915050565b6000602082019050919050565b60006123db82612370565b6123e5818561237b565b93506123f08361238c565b8060005b8381101561242157815161240888826123ab565b9750612413836123c3565b9250506001810190506123f4565b5085935050505092915050565b6000602082019050818103600083015261244881846123d0565b905092915050565b6000806000806080858703121561246a57612469611b19565b5b600061247887828801611b6c565b945050602061248987828801611ba2565b935050604061249a87828801611ba2565b925050606085013567ffffffffffffffff8111156124bb576124ba611b1e565b5b6124c78782880161207d565b91505092959194509250565b6124dc81611b43565b82525050565b60006020820190506124f760008301846124d3565b92915050565b61250681611ca6565b811461251157600080fd5b50565b600081359050612523816124fd565b92915050565b600080604083850312156125405761253f611b19565b5b600061254e85828601611b6c565b925050602061255f85828601612514565b9150509250929050565b600080604083850312156125805761257f611b19565b5b600061258e85828601611b6c565b925050602061259f85828601611b6c565b9150509250929050565b600080600080600060a086880312156125c5576125c4611b19565b5b60006125d388828901611b6c565b95505060206125e488828901611b6c565b94505060406125f588828901611ba2565b935050606061260688828901611ba2565b925050608086013567ffffffffffffffff81111561262757612626611b1e565b5b6126338882890161207d565b9150509295509295909350565b60006020828403121561265657612655611b19565b5b600061266484828501611b6c565b91505092915050565b7f455243313135353a2061646472657373207a65726f206973206e6f742061207660008201527f616c6964206f776e657200000000000000000000000000000000000000000000602082015250565b60006126c9602a83611ea3565b91506126d48261266d565b604082019050919050565b600060208201905081810360008301526126f8816126bc565b9050919050565b7f4e487b7100000000000000000000000000000000000000000000000000000000600052602260045260246000fd5b6000600282049050600182168061274657607f821691505b6020821081141561275a576127596126ff565b5b50919050565b7f455243313135353a2063616c6c6572206973206e6f7420746f6b656e206f776e60008201527f6572206e6f7220617070726f7665640000000000000000000000000000000000602082015250565b60006127bc602f83611ea3565b91506127c782612760565b604082019050919050565b600060208201905081810360008301526127eb816127af565b9050919050565b7f455243313135353a206163636f756e747320616e6420696473206c656e67746860008201527f206d69736d617463680000000000000000000000000000000000000000000000602082015250565b600061284e602983611ea3565b9150612859826127f2565b604082019050919050565b6000602082019050818103600083015261287d81612841565b9050919050565b7f4e487b7100000000000000000000000000000000000000000000000000000000600052603260045260246000fd5b7f4e487b7100000000000000000000000000000000000000000000000000000000600052601160045260246000fd5b60006128ed82611b81565b91507fffffffffffffffffffffffffffffffffffffffffffffffffffffffffffffffff8214156129205761291f6128b3565b5b600182019050919050565b7f4f776e61626c653a206e6577206f776e657220697320746865207a65726f206160008201527f6464726573730000000000000000000000000000000000000000000000000000602082015250565b6000612987602683611ea3565b91506129928261292b565b604082019050919050565b600060208201905081810360008301526129b68161297a565b9050919050565b7f4f776e61626c653a2063616c6c6572206973206e6f7420746865206f776e6572600082015250565b60006129f3602083611ea3565b91506129fe826129bd565b602082019050919050565b60006020820190508181036000830152612a22816129e6565b9050919050565b7f455243313135353a206d696e7420746f20746865207a65726f2061646472657360008201527f7300000000000000000000000000000000000000000000000000000000000000602082015250565b6000612a85602183611ea3565b9150612a9082612a29565b604082019050919050565b60006020820190508181036000830152612ab481612a78565b9050919050565b7f455243313135353a2069647320616e6420616d6f756e7473206c656e6774682060008201527f6d69736d61746368000000000000000000000000000000000000000000000000602082015250565b6000612b17602883611ea3565b9150612b2282612abb565b604082019050919050565b60006020820190508181036000830152612b4681612b0a565b9050919050565b6000612b5882611b81565b9150612b6383611b81565b9250827fffffffffffffffffffffffffffffffffffffffffffffffffffffffffffffffff03821115612b9857612b976128b3565b5b828201905092915050565b60006040820190508181036000830152612bbd81856123d0565b90508181036020830152612bd181846123d0565b90509392505050565b7f455243313135353a207472616e7366657220746f20746865207a65726f20616460008201527f6472657373000000000000000000000000000000000000000000000000000000602082015250565b6000612c36602583611ea3565b9150612c4182612bda565b604082019050919050565b60006020820190508181036000830152612c6581612c29565b9050919050565b7f455243313135353a20696e73756666696369656e742062616c616e636520666f60008201527f72207472616e7366657200000000000000000000000000000000000000000000602082015250565b6000612cc8602a83611ea3565b9150612cd382612c6c565b604082019050919050565b60006020820190508181036000830152612cf781612cbb565b9050919050565b6000604082019050612d136000830185611bf7565b612d206020830184611bf7565b9392505050565b7f455243313135353a2073657474696e6720617070726f76616c2073746174757360008201527f20666f722073656c660000000000000000000000000000000000000000000000602082015250565b6000612d83602983611ea3565b9150612d8e82612d27565b604082019050919050565b60006020820190508181036000830152612db281612d76565b9050919050565b600081519050919050565b600082825260208201905092915050565b6000612de082612db9565b612dea8185612dc4565b9350612dfa818560208601611eb4565b612e0381611ce6565b840191505092915050565b600060a082019050612e2360008301886124d3565b612e3060208301876124d3565b8181036040830152612e4281866123d0565b90508181036060830152612e5681856123d0565b90508181036080830152612e6a8184612dd5565b90509695505050505050565b600081519050612e8581611c4d565b92915050565b600060208284031215612ea157612ea0611b19565b5b6000612eaf84828501612e76565b91505092915050565b60008160e01c9050919050565b600060033d1115612ee45760046000803e612ee1600051612eb8565b90505b90565b600060443d1015612ef757612f7a565b612eff611b0f565b60043d036004823e80513d602482011167ffffffffffffffff82111715612f27575050612f7a565b808201805167ffffffffffffffff811115612f455750505050612f7a565b80602083010160043d038501811115612f62575050505050612f7a565b612f7182602001850186611d26565b82955050505050505b90565b7f455243313135353a207472616e7366657220746f206e6f6e204552433131353560008201527f526563656976657220696d706c656d656e746572000000000000000000000000602082015250565b6000612fd9603483611ea3565b9150612fe482612f7d565b604082019050919050565b6000602082019050818103600083015261300881612fcc565b9050919050565b7f455243313135353a204552433131353552656365697665722072656a6563746560008201527f6420746f6b656e73000000000000000000000000000000000000000000000000602082015250565b600061306b602883611ea3565b91506130768261300f565b604082019050919050565b6000602082019050818103600083015261309a8161305e565b9050919050565b600060a0820190506130b660008301886124d3565b6130c360208301876124d3565b6130d06040830186611bf7565b6130dd6060830185611bf7565b81810360808301526130ef8184612dd5565b9050969550505050505056fea264697066735822122056e63fd55984210a0d48bce63ba3b283aaea813ceeebd1a27a5f84882b9a0e6f64736f6c63430008090033",
  "linkReferences": {},
  "deployedLinkReferences": {}
}